{
  "contractName": "Exercice6",
  "abi": [
    {
      "inputs": [],
      "stateMutability": "nonpayable",
      "type": "constructor"
    },
    {
      "inputs": [
        {
          "internalType": "uint256",
          "name": "",
          "type": "uint256"
        }
      ],
      "name": "numbers",
      "outputs": [
        {
          "internalType": "uint256",
          "name": "",
          "type": "uint256"
        }
      ],
      "stateMutability": "view",
      "type": "function",
      "constant": true
    },
    {
      "inputs": [
        {
          "internalType": "uint256",
          "name": "_number",
          "type": "uint256"
        }
      ],
      "name": "addNumber",
      "outputs": [],
      "stateMutability": "nonpayable",
      "type": "function"
    },
    {
      "inputs": [
        {
          "internalType": "uint256",
          "name": "_index",
          "type": "uint256"
        }
      ],
      "name": "getNumber",
      "outputs": [
        {
          "internalType": "uint256",
          "name": "",
          "type": "uint256"
        }
      ],
      "stateMutability": "view",
      "type": "function",
      "constant": true
    },
    {
      "inputs": [],
      "name": "getAllNumbers",
      "outputs": [
        {
          "internalType": "uint256[]",
          "name": "",
          "type": "uint256[]"
        }
      ],
      "stateMutability": "view",
      "type": "function",
      "constant": true
    },
    {
      "inputs": [],
      "name": "calculateSum",
      "outputs": [
        {
          "internalType": "uint256",
          "name": "",
          "type": "uint256"
        }
      ],
      "stateMutability": "view",
      "type": "function",
      "constant": true
    }
  ],
  "bytecode": "0x608060405234801561000f575f80fd5b506040805160608101825260018152600260208201526003918101829052610039915f919061003f565b506100a1565b828054828255905f5260205f2090810192821561007d579160200282015b8281111561007d578251829060ff1690559160200191906001019061005d565b5061008992915061008d565b5090565b5b80821115610089575f815560010161008e565b61030a806100ae5f395ff3fe608060405234801561000f575f80fd5b5060043610610055575f3560e01c806374fddd21146100595780639dc0b49114610077578063d39fa2331461008d578063fc563658146100a0578063fce68023146100b3575b5f80fd5b6100616100f4565b60405161006e9190610221565b60405180910390f35b61007f610149565b60405190815260200161006e565b61007f61009b366004610264565b610196565b61007f6100ae366004610264565b6101b4565b6100f26100c1366004610264565b5f80546001810182559080527f290decd9548b62a8d60345a988386fc84ba6bc95484008f6362f93160ef3e5630155565b005b60605f80548060200260200160405190810160405280929190818152602001828054801561013f57602002820191905f5260205f20905b81548152602001906001019080831161012b575b5050505050905090565b5f80805b5f54811015610190575f81815481106101685761016861027b565b905f5260205f2001548261017c91906102a3565b915080610188816102bc565b91505061014d565b50919050565b5f81815481106101a4575f80fd5b5f91825260209091200154905081565b5f805482106101ff5760405162461bcd60e51b8152602060048201526013602482015272496e646578206f7574206f6620626f756e647360681b604482015260640160405180910390fd5b5f82815481106102115761021161027b565b905f5260205f2001549050919050565b602080825282518282018190525f9190848201906040850190845b818110156102585783518352928401929184019160010161023c565b50909695505050505050565b5f60208284031215610274575f80fd5b5035919050565b634e487b7160e01b5f52603260045260245ffd5b634e487b7160e01b5f52601160045260245ffd5b808201808211156102b6576102b661028f565b92915050565b5f600182016102cd576102cd61028f565b506001019056fea2646970667358221220fbf8ffe089de0509b2545aeb4bd27d5bddee35f67e466a4e2531c3ab8989107964736f6c63430008150033",
  "immutableReferences": {},
  "source": "// SPDX-License-Identifier: MIT\npragma solidity ^0.8.0;\n\ncontract Exercice6 {\n    uint[] public numbers;\n    \n    constructor() {\n        numbers = [1, 2, 3]; // Default initialization\n    }\n    \n    function addNumber(uint _number) public {\n        numbers.push(_number);\n    }\n    \n    function getNumber(uint _index) public view returns (uint) {\n        require(_index < numbers.length, \"Index out of bounds\");\n        return numbers[_index];\n    }\n    \n    function getAllNumbers() public view returns (uint[] memory) {\n        return numbers;\n    }\n    \n    function calculateSum() public view returns (uint) {\n        uint sum = 0;\n        for(uint i = 0; i < numbers.length; i++) {\n            sum += numbers[i];\n        }\n        return sum;\n    }\n} ",
  "sourcePath": "/home/nofel/Desktop/lafac/PFM_Blockchain/contracts/Exercice6.sol",
  "compiler": {
    "name": "solc",
    "version": "0.8.21+commit.d9974bed.Emscripten.clang"
  },
  "schemaVersion": "3.4.16",
  "updatedAt": "2025-05-17T17:58:42.888Z",
  "networkType": "ethereum",
  "devdoc": {
    "kind": "dev",
    "methods": {},
    "version": 1
  },
  "userdoc": {
    "kind": "user",
    "methods": {},
    "version": 1
  }
}