{
  "contractName": "Exercice3",
  "abi": [
    {
      "inputs": [
        {
          "internalType": "string",
          "name": "_message",
          "type": "string"
        }
      ],
      "name": "setMessage",
      "outputs": [],
      "stateMutability": "nonpayable",
      "type": "function"
    },
    {
      "inputs": [],
      "name": "getMessage",
      "outputs": [
        {
          "internalType": "string",
          "name": "",
          "type": "string"
        }
      ],
      "stateMutability": "view",
      "type": "function",
      "constant": true
    },
    {
      "inputs": [
        {
          "internalType": "string",
          "name": "a",
          "type": "string"
        },
        {
          "internalType": "string",
          "name": "b",
          "type": "string"
        }
      ],
      "name": "concatener",
      "outputs": [
        {
          "internalType": "string",
          "name": "",
          "type": "string"
        }
      ],
      "stateMutability": "pure",
      "type": "function",
      "constant": true
    },
    {
      "inputs": [
        {
          "internalType": "string",
          "name": "autreChaine",
          "type": "string"
        }
      ],
      "name": "concatenerAvec",
      "outputs": [
        {
          "internalType": "string",
          "name": "",
          "type": "string"
        }
      ],
      "stateMutability": "view",
      "type": "function",
      "constant": true
    },
    {
      "inputs": [
        {
          "internalType": "string",
          "name": "s",
          "type": "string"
        }
      ],
      "name": "longueur",
      "outputs": [
        {
          "internalType": "uint256",
          "name": "",
          "type": "uint256"
        }
      ],
      "stateMutability": "pure",
      "type": "function",
      "constant": true
    },
    {
      "inputs": [
        {
          "internalType": "string",
          "name": "a",
          "type": "string"
        },
        {
          "internalType": "string",
          "name": "b",
          "type": "string"
        }
      ],
      "name": "comparer",
      "outputs": [
        {
          "internalType": "bool",
          "name": "",
          "type": "bool"
        }
      ],
      "stateMutability": "pure",
      "type": "function",
      "constant": true
    }
  ],
  "bytecode": "0x608060405234801561000f575f80fd5b506105ad8061001d5f395ff3fe608060405234801561000f575f80fd5b5060043610610060575f3560e01c806317646f8914610064578063368b87721461009d578063413d4384146100b25780634f759687146100d25780639103ca33146100f2578063ce6d41de14610105575b5f80fd5b61008861007236600461029f565b8051602091820120825192909101919091201490565b60405190151581526020015b60405180910390f35b6100b06100ab3660046102ff565b61010d565b005b6100c56100c03660046102ff565b61011c565b604051610094919061035b565b6100e46100e03660046102ff565b5190565b604051908152602001610094565b6100c561010036600461029f565b610147565b6100c5610173565b5f6101188282610413565b5050565b60605f826040516020016101319291906104cf565b6040516020818303038152906040529050919050565b6060828260405160200161015c929190610552565b604051602081830303815290604052905092915050565b60605f80546101819061038d565b80601f01602080910402602001604051908101604052809291908181526020018280546101ad9061038d565b80156101f85780601f106101cf576101008083540402835291602001916101f8565b820191905f5260205f20905b8154815290600101906020018083116101db57829003601f168201915b5050505050905090565b634e487b7160e01b5f52604160045260245ffd5b5f82601f830112610225575f80fd5b813567ffffffffffffffff8082111561024057610240610202565b604051601f8301601f19908116603f0116810190828211818310171561026857610268610202565b81604052838152866020858801011115610280575f80fd5b836020870160208301375f602085830101528094505050505092915050565b5f80604083850312156102b0575f80fd5b823567ffffffffffffffff808211156102c7575f80fd5b6102d386838701610216565b935060208501359150808211156102e8575f80fd5b506102f585828601610216565b9150509250929050565b5f6020828403121561030f575f80fd5b813567ffffffffffffffff811115610325575f80fd5b61033184828501610216565b949350505050565b5f5b8381101561035357818101518382015260200161033b565b50505f910152565b602081525f8251806020840152610379816040850160208701610339565b601f01601f19169190910160400192915050565b600181811c908216806103a157607f821691505b6020821081036103bf57634e487b7160e01b5f52602260045260245ffd5b50919050565b601f82111561040e575f81815260208120601f850160051c810160208610156103eb5750805b601f850160051c820191505b8181101561040a578281556001016103f7565b5050505b505050565b815167ffffffffffffffff81111561042d5761042d610202565b6104418161043b845461038d565b846103c5565b602080601f831160018114610474575f841561045d5750858301515b5f19600386901b1c1916600185901b17855561040a565b5f85815260208120601f198616915b828110156104a257888601518255948401946001909101908401610483565b50858210156104bf57878501515f19600388901b60f8161c191681555b5050505050600190811b01905550565b5f8084546104dc8161038d565b600182811680156104f4576001811461050957610535565b60ff1984168752821515830287019450610535565b885f526020805f205f5b8581101561052c5781548a820152908401908201610513565b50505082870194505b505050508351610549818360208801610339565b01949350505050565b5f8351610563818460208801610339565b83519083019061054981836020880161033956fea2646970667358221220d1dee16a2b9bed3613fe77628eb8c5ec70d49b3f4b16e2a0238bd97f113f5b7264736f6c63430008150033",
  "immutableReferences": {},
  "source": "// SPDX-License-Identifier: MIT\npragma solidity ^0.8.12;\n\ncontract Exercice3 {\n    string private message;\n\n    function setMessage(string memory _message) public {\n        message = _message;\n    }\n\n    function getMessage() public view returns (string memory) {\n        return message;\n    }\n\n    function concatener(string memory a, string memory b) public pure returns (string memory) {\n        return string.concat(a, b);\n    }\n\n    function concatenerAvec(string memory autreChaine) public view returns (string memory) {\n        return string.concat(message, autreChaine);\n    }\n\n    function longueur(string memory s) public pure returns (uint) {\n        return bytes(s).length;\n    }\n\n    function comparer(string memory a, string memory b) public pure returns (bool) {\n        return keccak256(bytes(a)) == keccak256(bytes(b));\n    }\n}",
  "sourcePath": "/home/nofel/Desktop/lafac/PFM_Blockchain/contracts/Exercice3.sol",
  "compiler": {
    "name": "solc",
    "version": "0.8.21+commit.d9974bed.Emscripten.clang"
  },
  "schemaVersion": "3.4.16",
  "updatedAt": "2025-05-17T21:53:13.901Z",
  "networkType": "ethereum",
  "devdoc": {
    "kind": "dev",
    "methods": {},
    "version": 1
  },
  "userdoc": {
    "kind": "user",
    "methods": {},
    "version": 1
  }
}