{
  "contractName": "Exercice8",
  "abi": [
    {
      "inputs": [
        {
          "internalType": "address",
          "name": "_recipient",
          "type": "address"
        }
      ],
      "stateMutability": "nonpayable",
      "type": "constructor"
    },
    {
      "inputs": [],
      "name": "recipient",
      "outputs": [
        {
          "internalType": "address",
          "name": "",
          "type": "address"
        }
      ],
      "stateMutability": "view",
      "type": "function",
      "constant": true
    },
    {
      "stateMutability": "payable",
      "type": "receive",
      "payable": true
    },
    {
      "inputs": [],
      "name": "getBalance",
      "outputs": [
        {
          "internalType": "uint256",
          "name": "",
          "type": "uint256"
        }
      ],
      "stateMutability": "view",
      "type": "function",
      "constant": true
    },
    {
      "inputs": [],
      "name": "withdraw",
      "outputs": [],
      "stateMutability": "nonpayable",
      "type": "function"
    },
    {
      "inputs": [
        {
          "internalType": "uint256",
          "name": "_amount",
          "type": "uint256"
        }
      ],
      "name": "withdrawAmount",
      "outputs": [],
      "stateMutability": "nonpayable",
      "type": "function"
    }
  ],
  "bytecode": "0x608060405234801561000f575f80fd5b5060405161032138038061032183398101604081905261002e91610052565b5f80546001600160a01b0319166001600160a01b039290921691909117905561007f565b5f60208284031215610062575f80fd5b81516001600160a01b0381168114610078575f80fd5b9392505050565b6102958061008c5f395ff3fe608060405260043610610041575f3560e01c80630562b9f71461004c57806312065fe01461006d5780633ccfd60b1461008c57806366d003ac146100a0575f80fd5b3661004857005b5f80fd5b348015610057575f80fd5b5061006b610066366004610248565b6100d6565b005b348015610078575f80fd5b506040514781526020015b60405180910390f35b348015610097575f80fd5b5061006b6101b5565b3480156100ab575f80fd5b505f546100be906001600160a01b031681565b6040516001600160a01b039091168152602001610083565b5f546001600160a01b031633146101345760405162461bcd60e51b815260206004820152601f60248201527f4f6e6c792074686520726563697069656e742063616e2077697468647261770060448201526064015b60405180910390fd5b4781111561017b5760405162461bcd60e51b8152602060048201526014602482015273496e73756666696369656e742062616c616e636560601b604482015260640161012b565b5f80546040516001600160a01b039091169183156108fc02918491818181858888f193505050501580156101b1573d5f803e3d5ffd5b5050565b5f546001600160a01b0316331461020e5760405162461bcd60e51b815260206004820152601f60248201527f4f6e6c792074686520726563697069656e742063616e20776974686472617700604482015260640161012b565b5f80546040516001600160a01b03909116914780156108fc02929091818181858888f19350505050158015610245573d5f803e3d5ffd5b50565b5f60208284031215610258575f80fd5b503591905056fea2646970667358221220637e6ebd62c21104b3c32bf4ee6c21aa110b12cc8c17b47aa8cca68edc7c1b6b64736f6c63430008150033",
  "immutableReferences": {},
  "source": "// SPDX-License-Identifier: MIT\npragma solidity ^0.8.0;\n\ncontract Exercice8 {\n    address public recipient;\n    \n    constructor(address _recipient) {\n        recipient = _recipient;\n    }\n    \n    // Function to allow receiving ether\n    receive() external payable {\n        // No logic needed, just receive the Ether\n    }\n    \n    // Function to get the contract balance\n    function getBalance() public view returns (uint) {\n        return address(this).balance;\n    }\n    \n    // Function to withdraw the contract balance\n    function withdraw() public {\n        require(msg.sender == recipient, \"Only the recipient can withdraw\");\n        payable(recipient).transfer(address(this).balance);\n    }\n    \n    // Function to withdraw a specific amount\n    function withdrawAmount(uint _amount) public {\n        require(msg.sender == recipient, \"Only the recipient can withdraw\");\n        require(_amount <= address(this).balance, \"Insufficient balance\");\n        payable(recipient).transfer(_amount);\n    }\n} ",
  "sourcePath": "/home/nofel/Desktop/lafac/PFM_Blockchain/contracts/Exercice8.sol",
  "compiler": {
    "name": "solc",
    "version": "0.8.21+commit.d9974bed.Emscripten.clang"
  },
  "schemaVersion": "3.4.16",
  "updatedAt": "2025-05-17T17:58:42.894Z",
  "networkType": "ethereum",
  "devdoc": {
    "kind": "dev",
    "methods": {},
    "version": 1
  },
  "userdoc": {
    "kind": "user",
    "methods": {},
    "version": 1
  }
}