{
  "contractName": "Exercice2",
  "abi": [
    {
      "inputs": [
        {
          "internalType": "uint256",
          "name": "amountEther",
          "type": "uint256"
        }
      ],
      "name": "etherToWei",
      "outputs": [
        {
          "internalType": "uint256",
          "name": "",
          "type": "uint256"
        }
      ],
      "stateMutability": "pure",
      "type": "function",
      "constant": true
    },
    {
      "inputs": [
        {
          "internalType": "uint256",
          "name": "amountWei",
          "type": "uint256"
        }
      ],
      "name": "weiToEther",
      "outputs": [
        {
          "internalType": "uint256",
          "name": "",
          "type": "uint256"
        }
      ],
      "stateMutability": "pure",
      "type": "function",
      "constant": true
    }
  ],
  "bytecode": "0x608060405234801561000f575f80fd5b506101188061001d5f395ff3fe6080604052348015600e575f80fd5b50600436106030575f3560e01c8063d0eff891146034578063d8916bb9146055575b5f80fd5b6043603f366004608c565b6064565b60405190815260200160405180910390f35b60436060366004608c565b607b565b5f6075670de0b6b3a76400008360a2565b92915050565b5f607582670de0b6b3a764000060c0565b5f60208284031215609b575f80fd5b5035919050565b5f8260bb57634e487b7160e01b5f52601260045260245ffd5b500490565b8082028115828204841417607557634e487b7160e01b5f52601160045260245ffdfea2646970667358221220a862ff0756477556c25e1be6062115dc267f4d5df23b2e9fced18fd4d57e880864736f6c63430008150033",
  "immutableReferences": {},
  "source": "// SPDX-License-Identifier: MIT\npragma solidity ^0.8.0;\n\ncontract Exercice2 {\n    function etherToWei(uint amountEther) public pure returns (uint) {\n        return amountEther * 1 ether;\n    }\n    \n    function weiToEther(uint amountWei) public pure returns (uint) {\n        return amountWei / 1 ether;\n    }\n} ",
  "sourcePath": "/home/nofel/Desktop/lafac/PFM_Blockchain/contracts/Exercice2.sol",
  "compiler": {
    "name": "solc",
    "version": "0.8.21+commit.d9974bed.Emscripten.clang"
  },
  "schemaVersion": "3.4.16",
  "updatedAt": "2025-05-17T17:58:42.875Z",
  "networkType": "ethereum",
  "devdoc": {
    "kind": "dev",
    "methods": {},
    "version": 1
  },
  "userdoc": {
    "kind": "user",
    "methods": {},
    "version": 1
  }
}