{
  "contractName": "Exercice5",
  "abi": [
    {
      "inputs": [
        {
          "internalType": "uint256",
          "name": "_nombre",
          "type": "uint256"
        }
      ],
      "name": "estPair",
      "outputs": [
        {
          "internalType": "bool",
          "name": "",
          "type": "bool"
        }
      ],
      "stateMutability": "pure",
      "type": "function",
      "constant": true
    }
  ],
  "bytecode": "0x608060405234801561000f575f80fd5b5060c88061001c5f395ff3fe6080604052348015600e575f80fd5b50600436106026575f3560e01c80631cee907f14602a575b5f80fd5b60396035366004605e565b604d565b604051901515815260200160405180910390f35b5f60576002836074565b1592915050565b5f60208284031215606d575f80fd5b5035919050565b5f82608d57634e487b7160e01b5f52601260045260245ffd5b50069056fea2646970667358221220a0782a14a4379fa7da19a4925e5bde915e3da03d9f862862dedaf121e0970b8b64736f6c63430008150033",
  "immutableReferences": {},
  "source": "// SPDX-License-Identifier: MIT\npragma solidity ^0.8.0;\n\ncontract Exercice5 {\n    function estPair(uint _nombre) public pure returns (bool) {\n        return _nombre % 2 == 0;\n    }\n}",
  "sourcePath": "/home/nofel/Desktop/lafac/PFM_Blockchain/contracts/Exercice5.sol",
  "compiler": {
    "name": "solc",
    "version": "0.8.21+commit.d9974bed.Emscripten.clang"
  },
  "schemaVersion": "3.4.16",
  "updatedAt": "2025-05-17T21:53:13.919Z",
  "networkType": "ethereum",
  "devdoc": {
    "kind": "dev",
    "methods": {},
    "version": 1
  },
  "userdoc": {
    "kind": "user",
    "methods": {},
    "version": 1
  }
}