{
  "contractName": "Exercice3",
  "abi": [
    {
      "inputs": [],
      "name": "message",
      "outputs": [
        {
          "internalType": "string",
          "name": "",
          "type": "string"
        }
      ],
      "stateMutability": "view",
      "type": "function",
      "constant": true
    },
    {
      "inputs": [
        {
          "internalType": "string",
          "name": "_message",
          "type": "string"
        }
      ],
      "name": "setMessage",
      "outputs": [],
      "stateMutability": "nonpayable",
      "type": "function"
    },
    {
      "inputs": [],
      "name": "getMessage",
      "outputs": [
        {
          "internalType": "string",
          "name": "",
          "type": "string"
        }
      ],
      "stateMutability": "view",
      "type": "function",
      "constant": true
    },
    {
      "inputs": [
        {
          "internalType": "string",
          "name": "a",
          "type": "string"
        },
        {
          "internalType": "string",
          "name": "b",
          "type": "string"
        }
      ],
      "name": "concatenate",
      "outputs": [
        {
          "internalType": "string",
          "name": "",
          "type": "string"
        }
      ],
      "stateMutability": "pure",
      "type": "function",
      "constant": true
    },
    {
      "inputs": [
        {
          "internalType": "string",
          "name": "str",
          "type": "string"
        }
      ],
      "name": "getLength",
      "outputs": [
        {
          "internalType": "uint256",
          "name": "",
          "type": "uint256"
        }
      ],
      "stateMutability": "pure",
      "type": "function",
      "constant": true
    },
    {
      "inputs": [
        {
          "internalType": "string",
          "name": "a",
          "type": "string"
        },
        {
          "internalType": "string",
          "name": "b",
          "type": "string"
        }
      ],
      "name": "compare",
      "outputs": [
        {
          "internalType": "bool",
          "name": "",
          "type": "bool"
        }
      ],
      "stateMutability": "pure",
      "type": "function",
      "constant": true
    }
  ],
  "bytecode": "0x608060405234801561000f575f80fd5b5061058c8061001d5f395ff3fe608060405234801561000f575f80fd5b5060043610610060575f3560e01c8063266001d314610064578063368b87721461008d5780633a96fdd7146100a25780636981b5f4146100d6578063ce6d41de146100f6578063e21f37ce146100fe575b5f80fd5b6100776100723660046102f8565b610106565b604051610084919061037a565b60405180910390f35b6100a061009b3660046103ac565b610132565b005b6100c66100b03660046102f8565b8051602091820120825192909101919091201490565b6040519015158152602001610084565b6100e86100e43660046103ac565b5190565b604051908152602001610084565b610077610141565b6100776101d0565b6060828260405160200161011b9291906103e6565b604051602081830303815290604052905092915050565b5f61013d828261049a565b5050565b60605f805461014f90610414565b80601f016020809104026020016040519081016040528092919081815260200182805461017b90610414565b80156101c65780601f1061019d576101008083540402835291602001916101c6565b820191905f5260205f20905b8154815290600101906020018083116101a957829003601f168201915b5050505050905090565b5f80546101dc90610414565b80601f016020809104026020016040519081016040528092919081815260200182805461020890610414565b80156102535780601f1061022a57610100808354040283529160200191610253565b820191905f5260205f20905b81548152906001019060200180831161023657829003601f168201915b505050505081565b634e487b7160e01b5f52604160045260245ffd5b5f82601f83011261027e575f80fd5b813567ffffffffffffffff808211156102995761029961025b565b604051601f8301601f19908116603f011681019082821181831017156102c1576102c161025b565b816040528381528660208588010111156102d9575f80fd5b836020870160208301375f602085830101528094505050505092915050565b5f8060408385031215610309575f80fd5b823567ffffffffffffffff80821115610320575f80fd5b61032c8683870161026f565b93506020850135915080821115610341575f80fd5b5061034e8582860161026f565b9150509250929050565b5f5b8381101561037257818101518382015260200161035a565b50505f910152565b602081525f8251806020840152610398816040850160208701610358565b601f01601f19169190910160400192915050565b5f602082840312156103bc575f80fd5b813567ffffffffffffffff8111156103d2575f80fd5b6103de8482850161026f565b949350505050565b5f83516103f7818460208801610358565b83519083019061040b818360208801610358565b01949350505050565b600181811c9082168061042857607f821691505b60208210810361044657634e487b7160e01b5f52602260045260245ffd5b50919050565b601f821115610495575f81815260208120601f850160051c810160208610156104725750805b601f850160051c820191505b818110156104915782815560010161047e565b5050505b505050565b815167ffffffffffffffff8111156104b4576104b461025b565b6104c8816104c28454610414565b8461044c565b602080601f8311600181146104fb575f84156104e45750858301515b5f19600386901b1c1916600185901b178555610491565b5f85815260208120601f198616915b828110156105295788860151825594840194600190910190840161050a565b508582101561054657878501515f19600388901b60f8161c191681555b5050505050600190811b0190555056fea26469706673582212206f831c646ef08a78152856351258866f07e154bf59293cfe0f91d142d46e01b164736f6c63430008150033",
  "immutableReferences": {},
  "source": "// SPDX-License-Identifier: MIT\npragma solidity ^0.8.0;\n\ncontract Exercice3 {\n    string public message;\n    \n    function setMessage(string memory _message) public {\n        message = _message;\n    }\n    \n    function getMessage() public view returns (string memory) {\n        return message;\n    }\n    \n    function concatenate(string memory a, string memory b) public pure returns (string memory) {\n        return string.concat(a, b);\n    }\n    \n    function getLength(string memory str) public pure returns (uint) {\n        return bytes(str).length;\n    }\n    \n    function compare(string memory a, string memory b) public pure returns (bool) {\n        return keccak256(bytes(a)) == keccak256(bytes(b));\n    }\n} ",
  "sourcePath": "/home/nofel/Desktop/lafac/PFM_Blockchain/contracts/Exercice3.sol",
  "compiler": {
    "name": "solc",
    "version": "0.8.21+commit.d9974bed.Emscripten.clang"
  },
  "schemaVersion": "3.4.16",
  "updatedAt": "2025-05-17T17:58:42.879Z",
  "networkType": "ethereum",
  "devdoc": {
    "kind": "dev",
    "methods": {},
    "version": 1
  },
  "userdoc": {
    "kind": "user",
    "methods": {},
    "version": 1
  }
}