{
  "contractName": "Exercice4",
  "abi": [
    {
      "inputs": [
        {
          "internalType": "int256",
          "name": "_nombre",
          "type": "int256"
        }
      ],
      "name": "estPositif",
      "outputs": [
        {
          "internalType": "bool",
          "name": "",
          "type": "bool"
        }
      ],
      "stateMutability": "pure",
      "type": "function",
      "constant": true
    }
  ],
  "bytecode": "0x6080604052348015600e575f80fd5b50609a8061001b5f395ff3fe6080604052348015600e575f80fd5b50600436106026575f3560e01c8063fa046abd14602a575b5f80fd5b603a6035366004604e565b5f1290565b604051901515815260200160405180910390f35b5f60208284031215605d575f80fd5b503591905056fea2646970667358221220a61083223e913feec5a466b9e4b70b88fc40e73e9eb129ffa7d7d6873e0d90e164736f6c63430008150033",
  "immutableReferences": {},
  "source": "// SPDX-License-Identifier: MIT\npragma solidity ^0.8.0;\n\ncontract Exercice4 {\n    function estPositif(int256 _nombre) public pure returns (bool) {\n        return _nombre > 0;\n    }\n}",
  "sourcePath": "/home/nofel/Desktop/lafac/PFM_Blockchain/contracts/Exercice4.sol",
  "compiler": {
    "name": "solc",
    "version": "0.8.21+commit.d9974bed.Emscripten.clang"
  },
  "schemaVersion": "3.4.16",
  "updatedAt": "2025-05-17T21:53:13.914Z",
  "networkType": "ethereum",
  "devdoc": {
    "kind": "dev",
    "methods": {},
    "version": 1
  },
  "userdoc": {
    "kind": "user",
    "methods": {},
    "version": 1
  }
}