{
  "contractName": "Exercice6",
  "abi": [
    {
      "inputs": [
        {
          "internalType": "uint256[]",
          "name": "_valeurInitiales",
          "type": "uint256[]"
        }
      ],
      "stateMutability": "nonpayable",
      "type": "constructor"
    },
    {
      "inputs": [
        {
          "internalType": "uint256",
          "name": "_nombre",
          "type": "uint256"
        }
      ],
      "name": "ajouterNombre",
      "outputs": [],
      "stateMutability": "nonpayable",
      "type": "function"
    },
    {
      "inputs": [
        {
          "internalType": "uint256",
          "name": "index",
          "type": "uint256"
        }
      ],
      "name": "getElement",
      "outputs": [
        {
          "internalType": "uint256",
          "name": "",
          "type": "uint256"
        }
      ],
      "stateMutability": "view",
      "type": "function",
      "constant": true
    },
    {
      "inputs": [],
      "name": "afficheTableau",
      "outputs": [
        {
          "internalType": "uint256[]",
          "name": "",
          "type": "uint256[]"
        }
      ],
      "stateMutability": "view",
      "type": "function",
      "constant": true
    },
    {
      "inputs": [],
      "name": "calculerSomme",
      "outputs": [
        {
          "internalType": "uint256",
          "name": "",
          "type": "uint256"
        }
      ],
      "stateMutability": "view",
      "type": "function",
      "constant": true
    }
  ],
  "bytecode": "0x608060405234801561000f575f80fd5b506040516104fe3803806104fe83398101604081905261002e91610133565b80515f036100675760408051606081018252600a815260146020820152601e91810191909152610061905f9060036100bd565b506100b7565b5f5b81518110156100b5575f828281518110610085576100856101eb565b60209081029190910181015182546001810184555f938452919092200155806100ad816101ff565b915050610069565b505b50610223565b828054828255905f5260205f209081019282156100fb579160200282015b828111156100fb578251829060ff169055916020019190600101906100db565b5061010792915061010b565b5090565b5b80821115610107575f815560010161010c565b634e487b7160e01b5f52604160045260245ffd5b5f6020808385031215610144575f80fd5b82516001600160401b038082111561015a575f80fd5b818501915085601f83011261016d575f80fd5b81518181111561017f5761017f61011f565b8060051b604051601f19603f830116810181811085821117156101a4576101a461011f565b6040529182528482019250838101850191888311156101c1575f80fd5b938501935b828510156101df578451845293850193928501926101c6565b98975050505050505050565b634e487b7160e01b5f52603260045260245ffd5b5f6001820161021c57634e487b7160e01b5f52601160045260245ffd5b5060010190565b6102ce806102305f395ff3fe608060405234801561000f575f80fd5b506004361061004a575f3560e01c80631f4440b01461004e5780633a7d22bc1461006c578063bd92c6671461008d578063e66df334146100ce575b5f80fd5b6100566100d6565b60405161006391906101e5565b60405180910390f35b61007f61007a366004610228565b61012b565b604051908152602001610063565b6100cc61009b366004610228565b5f80546001810182559080527f290decd9548b62a8d60345a988386fc84ba6bc95484008f6362f93160ef3e5630155565b005b61007f610198565b60605f80548060200260200160405190810160405280929190818152602001828054801561012157602002820191905f5260205f20905b81548152602001906001019080831161010d575b5050505050905090565b5f805482106101765760405162461bcd60e51b8152602060048201526013602482015272496e6469636520686f7273206c696d6974657360681b604482015260640160405180910390fd5b5f82815481106101885761018861023f565b905f5260205f2001549050919050565b5f80805b5f548110156101df575f81815481106101b7576101b761023f565b905f5260205f200154826101cb9190610267565b9150806101d781610280565b91505061019c565b50919050565b602080825282518282018190525f9190848201906040850190845b8181101561021c57835183529284019291840191600101610200565b50909695505050505050565b5f60208284031215610238575f80fd5b5035919050565b634e487b7160e01b5f52603260045260245ffd5b634e487b7160e01b5f52601160045260245ffd5b8082018082111561027a5761027a610253565b92915050565b5f6001820161029157610291610253565b506001019056fea26469706673582212208c56025d812992166de45c94edef9b8dd9846a9290ac1045bed2a462c19347d364736f6c63430008150033",
  "immutableReferences": {},
  "source": "// SPDX-License-Identifier: MIT\npragma solidity ^0.8.0;\n\ncontract Exercice6 {\n    uint[] private nombres;\n\n    constructor(uint[] memory _valeurInitiales) {\n        // If no values are provided, use defaults\n        if (_valeurInitiales.length == 0) {\n        nombres = [10, 20, 30]; \n        } else {\n            // Copy provided values to nombres array\n            for(uint i = 0; i < _valeurInitiales.length; i++) {\n                nombres.push(_valeurInitiales[i]);\n            }\n        }\n    }\n    \n    function ajouterNombre(uint _nombre) public {\n        nombres.push(_nombre);\n    }\n\n    function getElement(uint index) public view returns (uint) {\n        require(index < nombres.length, \"Indice hors limites\");\n        return nombres[index];\n    }\n\n    function afficheTableau() public view returns (uint[] memory) {\n        return nombres;\n    }\n\n    function calculerSomme() public view returns (uint) {\n        uint somme = 0;\n        for(uint i = 0; i < nombres.length; i++) {\n            somme += nombres[i];\n        }\n        return somme;\n    }\n}",
  "sourcePath": "/home/nofel/Desktop/lafac/PFM_Blockchain/contracts/Exercice6.sol",
  "compiler": {
    "name": "solc",
    "version": "0.8.21+commit.d9974bed.Emscripten.clang"
  },
  "schemaVersion": "3.4.16",
  "updatedAt": "2025-05-17T21:53:13.930Z",
  "networkType": "ethereum",
  "devdoc": {
    "kind": "dev",
    "methods": {},
    "version": 1
  },
  "userdoc": {
    "kind": "user",
    "methods": {},
    "version": 1
  }
}