{
  "contractName": "Exercice1",
  "abi": [
    {
      "inputs": [],
      "name": "a",
      "outputs": [
        {
          "internalType": "uint256",
          "name": "",
          "type": "uint256"
        }
      ],
      "stateMutability": "view",
      "type": "function",
      "constant": true
    },
    {
      "inputs": [],
      "name": "b",
      "outputs": [
        {
          "internalType": "uint256",
          "name": "",
          "type": "uint256"
        }
      ],
      "stateMutability": "view",
      "type": "function",
      "constant": true
    },
    {
      "inputs": [],
      "name": "addition1",
      "outputs": [
        {
          "internalType": "uint256",
          "name": "",
          "type": "uint256"
        }
      ],
      "stateMutability": "view",
      "type": "function",
      "constant": true
    },
    {
      "inputs": [
        {
          "internalType": "uint256",
          "name": "_x",
          "type": "uint256"
        },
        {
          "internalType": "uint256",
          "name": "_y",
          "type": "uint256"
        }
      ],
      "name": "addition2",
      "outputs": [
        {
          "internalType": "uint256",
          "name": "",
          "type": "uint256"
        }
      ],
      "stateMutability": "pure",
      "type": "function",
      "constant": true
    }
  ],
  "bytecode": "0x608060405260055f55600a600155348015610018575f80fd5b50610116806100265f395ff3fe6080604052348015600e575f80fd5b50600436106044575f3560e01c80630dbe671f1460485780634d3e46e41460615780634df7e3d0146067578063f1d1643814606f575b5f80fd5b604f5f5481565b60405190815260200160405180910390f35b604f607e565b604f60015481565b604f607a36600460a3565b6091565b5f6001545f54608c919060c2565b905090565b5f609a828460c2565b90505b92915050565b5f806040838503121560b3575f80fd5b50508035926020909101359150565b80820180821115609d57634e487b7160e01b5f52601160045260245ffdfea2646970667358221220f2575b6abf37bf53e5520e73c29db8ee1476df586d6112c97ec606019bf6ae4a64736f6c63430008150033",
  "immutableReferences": {},
  "source": "// SPDX-License-Identifier: MIT\npragma solidity ^0.8.0;\n\ncontract Exercice1 {\n    uint public a = 5;  // Default value\n    uint public b = 10; // Default value\n    \n    function addition1() public view returns (uint) {\n        return a + b;\n    }\n    \n    function addition2(uint _x, uint _y) public pure returns (uint) {\n        return _x + _y;\n    }\n} ",
  "sourcePath": "/home/nofel/Desktop/lafac/PFM_Blockchain/contracts/Exercice1.sol",
  "compiler": {
    "name": "solc",
    "version": "0.8.21+commit.d9974bed.Emscripten.clang"
  },
  "schemaVersion": "3.4.16",
  "updatedAt": "2025-05-17T17:58:42.872Z",
  "networkType": "ethereum",
  "devdoc": {
    "kind": "dev",
    "methods": {},
    "version": 1
  },
  "userdoc": {
    "kind": "user",
    "methods": {},
    "version": 1
  }
}