{
  "contractName": "GestionNombres",
  "abi": [
    {
      "inputs": [],
      "stateMutability": "nonpayable",
      "type": "constructor"
    },
    {
      "inputs": [
        {
          "internalType": "uint256",
          "name": "_nombre",
          "type": "uint256"
        }
      ],
      "name": "ajouterNombre",
      "outputs": [],
      "stateMutability": "nonpayable",
      "type": "function"
    },
    {
      "inputs": [
        {
          "internalType": "uint256",
          "name": "index",
          "type": "uint256"
        }
      ],
      "name": "_getElement",
      "outputs": [
        {
          "internalType": "uint256",
          "name": "",
          "type": "uint256"
        }
      ],
      "stateMutability": "view",
      "type": "function"
    },
    {
      "inputs": [],
      "name": "afficheTableau",
      "outputs": [
        {
          "internalType": "uint256[]",
          "name": "",
          "type": "uint256[]"
        }
      ],
      "stateMutability": "view",
      "type": "function"
    },
    {
      "inputs": [],
      "name": "calcularSomme",
      "outputs": [
        {
          "internalType": "uint256",
          "name": "",
          "type": "uint256"
        }
      ],
      "stateMutability": "view",
      "type": "function"
    }
  ],
  "bytecode": "0x608060405234801561000f575f80fd5b5060408051606081018252600a815260146020820152601e9181019190915261003b905f906003610041565b506100a3565b828054828255905f5260205f2090810192821561007f579160200282015b8281111561007f578251829060ff1690559160200191906001019061005f565b5061008b92915061008f565b5090565b5b8082111561008b575f8155600101610090565b6102cd806100b05f395ff3fe608060405234801561000f575f80fd5b506004361061004a575f3560e01c80631f4440b01461004e57806337a382081461006c578063b2e1e6da14610082578063bd92c66714610095575b5f80fd5b6100566100d6565b60405161006391906101e4565b60405180910390f35b61007461012b565b604051908152602001610063565b610074610090366004610227565b610178565b6100d46100a3366004610227565b5f80546001810182559080527f290decd9548b62a8d60345a988386fc84ba6bc95484008f6362f93160ef3e5630155565b005b60605f80548060200260200160405190810160405280929190818152602001828054801561012157602002820191905f5260205f20905b81548152602001906001019080831161010d575b5050505050905090565b5f80805b5f54811015610172575f818154811061014a5761014a61023e565b905f5260205f2001548261015e9190610266565b91508061016a8161027f565b91505061012f565b50919050565b5f805482106101c25760405162461bcd60e51b8152602060048201526012602482015271496e64657820686f7273206c696d6974657360701b604482015260640160405180910390fd5b5f82815481106101d4576101d461023e565b905f5260205f2001549050919050565b602080825282518282018190525f9190848201906040850190845b8181101561021b578351835292840192918401916001016101ff565b50909695505050505050565b5f60208284031215610237575f80fd5b5035919050565b634e487b7160e01b5f52603260045260245ffd5b634e487b7160e01b5f52601160045260245ffd5b8082018082111561027957610279610252565b92915050565b5f6001820161029057610290610252565b506001019056fea26469706673582212208b26099c7a072e4e3d0a1e53e747c73659de76a520a87422d4e2261678d979dc64736f6c63430008150033",
  "immutableReferences": {},
  "source": "// SPDX-License-Identifier: MIT\npragma solidity ^0.8.0;\n\ncontract GestionNombres {\n    // Dynamic array to store numbers\n    uint[] private nombres;\n\n    // Constructor initializes the array (optional: add initial values)\n    constructor() {\n        // Initialize with default values (optional)\n        nombres = [10, 20, 30];\n    }\n\n    // Add a number to the array\n    function ajouterNombre(uint _nombre) public {\n        nombres.push(_nombre);\n    }\n\n    // Get element at specific index with bounds checking\n    function _getElement(uint index) public view returns (uint) {\n        require(index < nombres.length, \"Index hors limites\");\n        return nombres[index];\n    }\n\n    // Return the entire array\n    function afficheTableau() public view returns (uint[] memory) {\n        return nombres;\n    }\n\n    // Calculate sum of all numbers in the array\n    function calcularSomme() public view returns (uint) {\n        uint somme = 0;\n        for (uint i = 0; i < nombres.length; i++) {\n            somme += nombres[i];\n        }\n        return somme;\n    }\n}",
  "sourcePath": "/home/nofel/Desktop/lafac/PFM_Blockchain/contracts/Exercice6.sol",
  "compiler": {
    "name": "solc",
    "version": "0.8.21+commit.d9974bed.Emscripten.clang"
  },
  "schemaVersion": "3.4.16",
  "updatedAt": "2025-05-17T17:58:38.984Z",
  "devdoc": {
    "kind": "dev",
    "methods": {},
    "version": 1
  },
  "userdoc": {
    "kind": "user",
    "methods": {},
    "version": 1
  }
}