{
  "contractName": "Payment",
  "abi": [
    {
      "inputs": [
        {
          "internalType": "address",
          "name": "_recipient",
          "type": "address"
        }
      ],
      "stateMutability": "nonpayable",
      "type": "constructor"
    },
    {
      "inputs": [],
      "name": "recipient",
      "outputs": [
        {
          "internalType": "address",
          "name": "",
          "type": "address"
        }
      ],
      "stateMutability": "view",
      "type": "function",
      "constant": true
    },
    {
      "inputs": [],
      "name": "receivePayment",
      "outputs": [],
      "stateMutability": "payable",
      "type": "function",
      "payable": true
    },
    {
      "inputs": [],
      "name": "withdraw",
      "outputs": [],
      "stateMutability": "nonpayable",
      "type": "function"
    },
    {
      "inputs": [
        {
          "internalType": "address payable",
          "name": "_destination",
          "type": "address"
        }
      ],
      "name": "sendTo",
      "outputs": [],
      "stateMutability": "nonpayable",
      "type": "function"
    }
  ],
  "bytecode": "0x608060405234801561000f575f80fd5b5060405161038f38038061038f83398101604081905261002e91610052565b5f80546001600160a01b0319166001600160a01b039290921691909117905561007f565b5f60208284031215610062575f80fd5b81516001600160a01b0381168114610078575f80fd5b9392505050565b6103038061008c5f395ff3fe60806040526004361061003e575f3560e01c80633ccfd60b1461004257806366d003ac14610058578063835c19f314610092578063e6d252451461009a575b5f80fd5b34801561004d575f80fd5b506100566100b9565b005b348015610063575f80fd5b505f54610076906001600160a01b031681565b6040516001600160a01b03909116815260200160405180910390f35b610056610140565b3480156100a5575f80fd5b506100566100b43660046102a0565b610184565b5f546001600160a01b031633146101065760405162461bcd60e51b815260206004820152600c60248201526b4e6f6e206175746f7269736560a01b60448201526064015b60405180910390fd5b5f80546040516001600160a01b03909116914780156108fc02929091818181858888f1935050505015801561013d573d5f803e3d5ffd5b50565b5f34116101825760405162461bcd60e51b815260206004820152601060248201526f4d6f6e74616e7420696e76616c69646560801b60448201526064016100fd565b565b5f546001600160a01b031633146101cc5760405162461bcd60e51b815260206004820152600c60248201526b4e6f6e206175746f7269736560a01b60448201526064016100fd565b6001600160a01b0381166102225760405162461bcd60e51b815260206004820152601f60248201527f416472657373652064652064657374696e6174696f6e20696e76616c6964650060448201526064016100fd565b5f471161026a5760405162461bcd60e51b81526020600482015260166024820152752830b9903232903337b7323990309032b73b37bcb2b960511b60448201526064016100fd565b6040516001600160a01b038216904780156108fc02915f818181858888f1935050505015801561029c573d5f803e3d5ffd5b5050565b5f602082840312156102b0575f80fd5b81356001600160a01b03811681146102c6575f80fd5b939250505056fea26469706673582212203f71a49067210e86ebd19e0fc8d6a8ffffe191dcc4d41b9f3b5b7c67ea17b16964736f6c63430008150033",
  "immutableReferences": {},
  "source": "// SPDX-License-Identifier: MIT\npragma solidity ^0.8.0;\n\ncontract Payment {\n    address public recipient;\n    \n    constructor(address _recipient) {\n        recipient = _recipient;\n    }\n\n    function receivePayment() public payable {\n        require(msg.value > 0, \"Montant invalide\");\n    }\n\n    function withdraw() public {\n        require(msg.sender == recipient, \"Non autorise\");\n        payable(recipient).transfer(address(this).balance);\n    }\n    \n    // New function to send funds to a specific address\n    function sendTo(address payable _destination) public {\n        require(msg.sender == recipient, \"Non autorise\");\n        require(_destination != address(0), \"Adresse de destination invalide\");\n        require(address(this).balance > 0, \"Pas de fonds a envoyer\");\n        \n        _destination.transfer(address(this).balance);\n    }\n}",
  "sourcePath": "/home/nofel/Desktop/lafac/PFM_Blockchain/contracts/Exercice8.sol",
  "compiler": {
    "name": "solc",
    "version": "0.8.21+commit.d9974bed.Emscripten.clang"
  },
  "schemaVersion": "3.4.16",
  "updatedAt": "2025-05-17T21:53:13.952Z",
  "networkType": "ethereum",
  "devdoc": {
    "kind": "dev",
    "methods": {},
    "version": 1
  },
  "userdoc": {
    "kind": "user",
    "methods": {},
    "version": 1
  }
}