{
  "contractName": "Rectangle",
  "abi": [
    {
      "inputs": [
        {
          "internalType": "uint256",
          "name": "_x",
          "type": "uint256"
        },
        {
          "internalType": "uint256",
          "name": "_y",
          "type": "uint256"
        },
        {
          "internalType": "uint256",
          "name": "_longueur",
          "type": "uint256"
        },
        {
          "internalType": "uint256",
          "name": "_largeur",
          "type": "uint256"
        }
      ],
      "stateMutability": "nonpayable",
      "type": "constructor"
    },
    {
      "inputs": [],
      "name": "afficheXY",
      "outputs": [
        {
          "internalType": "uint256",
          "name": "",
          "type": "uint256"
        },
        {
          "internalType": "uint256",
          "name": "",
          "type": "uint256"
        }
      ],
      "stateMutability": "view",
      "type": "function",
      "constant": true
    },
    {
      "inputs": [
        {
          "internalType": "uint256",
          "name": "dx",
          "type": "uint256"
        },
        {
          "internalType": "uint256",
          "name": "dy",
          "type": "uint256"
        }
      ],
      "name": "deplacerForme",
      "outputs": [],
      "stateMutability": "nonpayable",
      "type": "function"
    },
    {
      "inputs": [],
      "name": "largeur",
      "outputs": [
        {
          "internalType": "uint256",
          "name": "",
          "type": "uint256"
        }
      ],
      "stateMutability": "view",
      "type": "function",
      "constant": true
    },
    {
      "inputs": [],
      "name": "longueur",
      "outputs": [
        {
          "internalType": "uint256",
          "name": "",
          "type": "uint256"
        }
      ],
      "stateMutability": "view",
      "type": "function",
      "constant": true
    },
    {
      "inputs": [],
      "name": "x",
      "outputs": [
        {
          "internalType": "uint256",
          "name": "",
          "type": "uint256"
        }
      ],
      "stateMutability": "view",
      "type": "function",
      "constant": true
    },
    {
      "inputs": [],
      "name": "y",
      "outputs": [
        {
          "internalType": "uint256",
          "name": "",
          "type": "uint256"
        }
      ],
      "stateMutability": "view",
      "type": "function",
      "constant": true
    },
    {
      "inputs": [],
      "name": "surface",
      "outputs": [
        {
          "internalType": "uint256",
          "name": "",
          "type": "uint256"
        }
      ],
      "stateMutability": "view",
      "type": "function",
      "constant": true
    },
    {
      "inputs": [],
      "name": "afficheInfos",
      "outputs": [
        {
          "internalType": "string",
          "name": "",
          "type": "string"
        }
      ],
      "stateMutability": "pure",
      "type": "function",
      "constant": true
    },
    {
      "inputs": [],
      "name": "afficheDimensions",
      "outputs": [
        {
          "internalType": "uint256",
          "name": "",
          "type": "uint256"
        },
        {
          "internalType": "uint256",
          "name": "",
          "type": "uint256"
        }
      ],
      "stateMutability": "view",
      "type": "function",
      "constant": true
    }
  ],
  "bytecode": "0x608060405234801561000f575f80fd5b506040516102f33803806102f383398101604081905261002e91610044565b5f93909355600191909155600255600355610077565b5f805f8060808587031215610057575f80fd5b505082516020840151604085015160609095015191969095509092509050565b61026f806100845f395ff3fe608060405234801561000f575f80fd5b5060043610610090575f3560e01c80639361c232116100635780639361c232146100dc578063a56dfe4a146100f1578063a9305d85146100fa578063cd514e4014610103578063cfa8d7a41461010d575f80fd5b80630c55699c146100945780630e94ba83146100af5780634df3c7c1146100b757806365936c6d146100c0575b5f80fd5b61009c5f5481565b6040519081526020015b60405180910390f35b61009c610143565b61009c60035481565b6002546003545b604080519283526020830191909152016100a6565b6100ef6100ea36600461018a565b610159565b005b61009c60015481565b61009c60025481565b5f546001546100c7565b60408051808201825260148152734a65207375697320756e2052656374616e676c6560601b602082015290516100a691906101aa565b5f6003546002546101549190610209565b905090565b815f808282546101699190610226565b925050819055508060015f8282546101819190610226565b90915550505050565b5f806040838503121561019b575f80fd5b50508035926020909101359150565b5f6020808352835180828501525f5b818110156101d5578581018301518582016040015282016101b9565b505f604082860101526040601f19601f8301168501019250505092915050565b634e487b7160e01b5f52601160045260245ffd5b8082028115828204841417610220576102206101f5565b92915050565b80820180821115610220576102206101f556fea264697066735822122033c8c03b4b52b8c15f8b50bafba98ebfb0d686ddcab31dcf77d50bf9fec132c164736f6c63430008150033",
  "immutableReferences": {},
  "source": "// SPDX-License-Identifier: MIT\npragma solidity ^0.8.0;\n\nabstract contract Forme {\n    uint public x;\n    uint public y;\n    \n    constructor(uint _x, uint _y) {\n        x = _x;\n        y = _y;\n    }\n    \n    function deplacerForme(uint dx, uint dy) public {\n        x += dx;\n        y += dy;\n    }\n    \n    function afficheXY() public view returns (uint, uint) {\n        return (x, y);\n    }\n    \n    function afficheInfos() public virtual pure returns (string memory) {\n        return \"Je suis une forme\";\n    }\n    \n    function surface() public virtual view returns (uint);\n}\n\ncontract Rectangle is Forme {\n    uint public longueur;\n    uint public largeur;\n    \n    constructor(uint _x, uint _y, uint _longueur, uint _largeur) Forme(_x, _y) {\n        longueur = _longueur;\n        largeur = _largeur;\n    }\n    \n    function surface() public override view returns (uint) {\n        return longueur * largeur;\n    }\n    \n    function afficheInfos() public override pure returns (string memory) {\n        return \"Je suis un Rectangle\";\n    }\n    \n    function afficheDimensions() public view returns (uint, uint) {\n        return (longueur, largeur);\n    }\n}",
  "sourcePath": "/home/nofel/Desktop/lafac/PFM_Blockchain/contracts/Exercice7.sol",
  "compiler": {
    "name": "solc",
    "version": "0.8.21+commit.d9974bed.Emscripten.clang"
  },
  "schemaVersion": "3.4.16",
  "updatedAt": "2025-05-17T21:53:13.945Z",
  "networkType": "ethereum",
  "devdoc": {
    "kind": "dev",
    "methods": {},
    "version": 1
  },
  "userdoc": {
    "kind": "user",
    "methods": {},
    "version": 1
  }
}