{
  "contractName": "Rectangle",
  "abi": [
    {
      "inputs": [
        {
          "internalType": "uint256",
          "name": "_x",
          "type": "uint256"
        },
        {
          "internalType": "uint256",
          "name": "_y",
          "type": "uint256"
        },
        {
          "internalType": "uint256",
          "name": "_length",
          "type": "uint256"
        },
        {
          "internalType": "uint256",
          "name": "_width",
          "type": "uint256"
        }
      ],
      "stateMutability": "nonpayable",
      "type": "constructor"
    },
    {
      "inputs": [],
      "name": "length",
      "outputs": [
        {
          "internalType": "uint256",
          "name": "",
          "type": "uint256"
        }
      ],
      "stateMutability": "view",
      "type": "function",
      "constant": true
    },
    {
      "inputs": [],
      "name": "width",
      "outputs": [
        {
          "internalType": "uint256",
          "name": "",
          "type": "uint256"
        }
      ],
      "stateMutability": "view",
      "type": "function",
      "constant": true
    },
    {
      "inputs": [],
      "name": "x",
      "outputs": [
        {
          "internalType": "uint256",
          "name": "",
          "type": "uint256"
        }
      ],
      "stateMutability": "view",
      "type": "function",
      "constant": true
    },
    {
      "inputs": [],
      "name": "y",
      "outputs": [
        {
          "internalType": "uint256",
          "name": "",
          "type": "uint256"
        }
      ],
      "stateMutability": "view",
      "type": "function",
      "constant": true
    },
    {
      "inputs": [],
      "name": "area",
      "outputs": [
        {
          "internalType": "uint256",
          "name": "",
          "type": "uint256"
        }
      ],
      "stateMutability": "view",
      "type": "function",
      "constant": true
    }
  ],
  "bytecode": "0x608060405234801561000f575f80fd5b5060405161017e38038061017e83398101604081905261002e91610044565b5f93909355600191909155600255600355610077565b5f805f8060808587031215610057575f80fd5b505082516020840151604085015160609095015191969095509092509050565b60fb806100835f395ff3fe6080604052348015600e575f80fd5b5060043610604e575f3560e01c80630c55699c1460525780631f7b6d3214606b5780634d41892f1460735780639ededf77146079578063a56dfe4a146081575b5f80fd5b60595f5481565b60405190815260200160405180910390f35b605960025481565b60596089565b605960035481565b605960015481565b5f60035460025460989190609d565b905090565b808202811582820484141760bf57634e487b7160e01b5f52601160045260245ffd5b9291505056fea26469706673582212200d9170689a9b733b64c4b1415bb5bbda789dab9b07ed1f7fd1c02f8a07fd5ee264736f6c63430008150033",
  "immutableReferences": {},
  "source": "// SPDX-License-Identifier: MIT\npragma solidity ^0.8.0;\n\nabstract contract Shape {\n    uint public x;\n    uint public y;\n    \n    constructor(uint _x, uint _y) {\n        x = _x;\n        y = _y;\n    }\n    \n    function area() public virtual view returns (uint);\n}\n\ncontract Rectangle is Shape {\n    uint public length;\n    uint public width;\n    \n    constructor(uint _x, uint _y, uint _length, uint _width) Shape(_x, _y) {\n        length = _length;\n        width = _width;\n    }\n    \n    function area() public override view returns (uint) {\n        return length * width;\n    }\n} ",
  "sourcePath": "/home/nofel/Desktop/lafac/PFM_Blockchain/contracts/Exercice7.sol",
  "compiler": {
    "name": "solc",
    "version": "0.8.21+commit.d9974bed.Emscripten.clang"
  },
  "schemaVersion": "3.4.16",
  "updatedAt": "2025-05-17T17:58:42.892Z",
  "networkType": "ethereum",
  "devdoc": {
    "kind": "dev",
    "methods": {},
    "version": 1
  },
  "userdoc": {
    "kind": "user",
    "methods": {},
    "version": 1
  }
}